{
	"data": {
		"bytecode": {
			"linkReferences": {},
			"object": "6080604052348015600e575f80fd5b50610f768061001c5f395ff3fe608060405234801561000f575f80fd5b5060043610610055575f3560e01c806329507f73146100595780632e8782bc1461007557806398f1c340146100a5578063e261f1e5146100c1578063f02dd53f146100f5575b5f80fd5b610073600480360381019061006e91906107d1565b610129565b005b61008f600480360381019061008a919061080f565b6102e8565b60405161009c9190610854565b60405180910390f35b6100bf60048036038101906100ba91906109a9565b610311565b005b6100db60048036038101906100d6919061080f565b6104a9565b6040516100ec959493929190610a93565b60405180910390f35b61010f600480360381019061010a919061080f565b61058c565b604051610120959493929190610a93565b60405180910390f35b5f805f8481526020019081526020015f2090508060030160149054906101000a900460ff1661018d576040517f08c379a000000000000000000000000000000000000000000000000000000000815260040161018490610b35565b60405180910390fd5b3373ffffffffffffffffffffffffffffffffffffffff16816003015f9054906101000a900473ffffffffffffffffffffffffffffffffffffffff1673ffffffffffffffffffffffffffffffffffffffff161461021e576040517f08c379a000000000000000000000000000000000000000000000000000000000815260040161021590610bc3565b60405180910390fd5b5f816003015f9054906101000a900473ffffffffffffffffffffffffffffffffffffffff16905082826003015f6101000a81548173ffffffffffffffffffffffffffffffffffffffff021916908373ffffffffffffffffffffffffffffffffffffffff1602179055508273ffffffffffffffffffffffffffffffffffffffff168173ffffffffffffffffffffffffffffffffffffffff16857f16b85f49bf01212961345d3016c9a531894accf62eb7680f2045d79185cc0ec060405160405180910390a450505050565b5f805f8381526020019081526020015f2060030160149054906101000a900460ff169050919050565b5f808481526020019081526020015f2060030160149054906101000a900460ff1615610372576040517f08c379a000000000000000000000000000000000000000000000000000000000815260040161036990610c2b565b60405180910390fd5b6040518060a001604052808481526020018381526020018281526020013373ffffffffffffffffffffffffffffffffffffffff168152602001600115158152505f808581526020019081526020015f205f820151815f015560208201518160010190816103df9190610e43565b50604082015181600201556060820151816003015f6101000a81548173ffffffffffffffffffffffffffffffffffffffff021916908373ffffffffffffffffffffffffffffffffffffffff16021790555060808201518160030160146101000a81548160ff0219169083151502179055509050503373ffffffffffffffffffffffffffffffffffffffff16837f53a976a9b9d61df3bb2e08e33448938aea67fb03572279eb18ed48cdd6fad04e848460405161049c929190610f12565b60405180910390a3505050565b5f602052805f5260405f205f91509050805f0154908060010180546104cd90610c76565b80601f01602080910402602001604051908101604052809291908181526020018280546104f990610c76565b80156105445780601f1061051b57610100808354040283529160200191610544565b820191905f5260205f20905b81548152906001019060200180831161052757829003601f168201915b505050505090806002015490806003015f9054906101000a900473ffffffffffffffffffffffffffffffffffffffff16908060030160149054906101000a900460ff16905085565b5f60605f805f805f808881526020019081526020015f206040518060a00160405290815f82015481526020016001820180546105c790610c76565b80601f01602080910402602001604051908101604052809291908181526020018280546105f390610c76565b801561063e5780601f106106155761010080835404028352916020019161063e565b820191905f5260205f20905b81548152906001019060200180831161062157829003601f168201915b5050505050815260200160028201548152602001600382015f9054906101000a900473ffffffffffffffffffffffffffffffffffffffff1673ffffffffffffffffffffffffffffffffffffffff1673ffffffffffffffffffffffffffffffffffffffff1681526020016003820160149054906101000a900460ff16151515158152505090508060800151610707576040517f08c379a00000000000000000000000000000000000000000000000000000000081526004016106fe90610b35565b60405180910390fd5b805f01518160200151826040015183606001518460800151955095509550955095505091939590929450565b5f604051905090565b5f80fd5b5f80fd5b5f819050919050565b61075681610744565b8114610760575f80fd5b50565b5f813590506107718161074d565b92915050565b5f73ffffffffffffffffffffffffffffffffffffffff82169050919050565b5f6107a082610777565b9050919050565b6107b081610796565b81146107ba575f80fd5b50565b5f813590506107cb816107a7565b92915050565b5f80604083850312156107e7576107e661073c565b5b5f6107f485828601610763565b9250506020610805858286016107bd565b9150509250929050565b5f602082840312156108245761082361073c565b5b5f61083184828501610763565b91505092915050565b5f8115159050919050565b61084e8161083a565b82525050565b5f6020820190506108675f830184610845565b92915050565b5f80fd5b5f80fd5b5f601f19601f8301169050919050565b7f4e487b71000000000000000000000000000000000000000000000000000000005f52604160045260245ffd5b6108bb82610875565b810181811067ffffffffffffffff821117156108da576108d9610885565b5b80604052505050565b5f6108ec610733565b90506108f882826108b2565b919050565b5f67ffffffffffffffff82111561091757610916610885565b5b61092082610875565b9050602081019050919050565b828183375f83830152505050565b5f61094d610948846108fd565b6108e3565b90508281526020810184848401111561096957610968610871565b5b61097484828561092d565b509392505050565b5f82601f8301126109905761098f61086d565b5b81356109a084826020860161093b565b91505092915050565b5f805f606084860312156109c0576109bf61073c565b5b5f6109cd86828701610763565b935050602084013567ffffffffffffffff8111156109ee576109ed610740565b5b6109fa8682870161097c565b9250506040610a0b86828701610763565b9150509250925092565b610a1e81610744565b82525050565b5f81519050919050565b5f82825260208201905092915050565b8281835e5f83830152505050565b5f610a5682610a24565b610a608185610a2e565b9350610a70818560208601610a3e565b610a7981610875565b840191505092915050565b610a8d81610796565b82525050565b5f60a082019050610aa65f830188610a15565b8181036020830152610ab88187610a4c565b9050610ac76040830186610a15565b610ad46060830185610a84565b610ae16080830184610845565b9695505050505050565b7f4c616e64206e6f742072656769737465726564000000000000000000000000005f82015250565b5f610b1f601383610a2e565b9150610b2a82610aeb565b602082019050919050565b5f6020820190508181035f830152610b4c81610b13565b9050919050565b7f4f6e6c7920746865206f776e65722063616e207472616e73666572206f776e655f8201527f7273686970000000000000000000000000000000000000000000000000000000602082015250565b5f610bad602583610a2e565b9150610bb882610b53565b604082019050919050565b5f6020820190508181035f830152610bda81610ba1565b9050919050565b7f4c616e6420616c726561647920726567697374657265640000000000000000005f82015250565b5f610c15601783610a2e565b9150610c2082610be1565b602082019050919050565b5f6020820190508181035f830152610c4281610c09565b9050919050565b7f4e487b71000000000000000000000000000000000000000000000000000000005f52602260045260245ffd5b5f6002820490506001821680610c8d57607f821691505b602082108103610ca057610c9f610c49565b5b50919050565b5f819050815f5260205f209050919050565b5f6020601f8301049050919050565b5f82821b905092915050565b5f60088302610d027fffffffffffffffffffffffffffffffffffffffffffffffffffffffffffffffff82610cc7565b610d0c8683610cc7565b95508019841693508086168417925050509392505050565b5f819050919050565b5f610d47610d42610d3d84610744565b610d24565b610744565b9050919050565b5f819050919050565b610d6083610d2d565b610d74610d6c82610d4e565b848454610cd3565b825550505050565b5f90565b610d88610d7c565b610d93818484610d57565b505050565b5b81811015610db657610dab5f82610d80565b600181019050610d99565b5050565b601f821115610dfb57610dcc81610ca6565b610dd584610cb8565b81016020851015610de4578190505b610df8610df085610cb8565b830182610d98565b50505b505050565b5f82821c905092915050565b5f610e1b5f1984600802610e00565b1980831691505092915050565b5f610e338383610e0c565b9150826002028217905092915050565b610e4c82610a24565b67ffffffffffffffff811115610e6557610e64610885565b5b610e6f8254610c76565b610e7a828285610dba565b5f60209050601f831160018114610eab575f8415610e99578287015190505b610ea38582610e28565b865550610f0a565b601f198416610eb986610ca6565b5f5b82811015610ee057848901518255600182019150602085019450602081019050610ebb565b86831015610efd5784890151610ef9601f891682610e0c565b8355505b6001600288020188555050505b505050505050565b5f6040820190508181035f830152610f2a8185610a4c565b9050610f396020830184610a15565b939250505056fea26469706673582212202a4e79181ce8d931e9f85a1e6e65f380b056bfd9e49bf221d169a9f9eda22d0464736f6c634300081a0033",
			"opcodes": "PUSH1 0x80 PUSH1 0x40 MSTORE CALLVALUE DUP1 ISZERO PUSH1 0xE JUMPI PUSH0 DUP1 REVERT JUMPDEST POP PUSH2 0xF76 DUP1 PUSH2 0x1C PUSH0 CODECOPY PUSH0 RETURN INVALID PUSH1 0x80 PUSH1 0x40 MSTORE CALLVALUE DUP1 ISZERO PUSH2 0xF JUMPI PUSH0 DUP1 REVERT JUMPDEST POP PUSH1 0x4 CALLDATASIZE LT PUSH2 0x55 JUMPI PUSH0 CALLDATALOAD PUSH1 0xE0 SHR DUP1 PUSH4 0x29507F73 EQ PUSH2 0x59 JUMPI DUP1 PUSH4 0x2E8782BC EQ PUSH2 0x75 JUMPI DUP1 PUSH4 0x98F1C340 EQ PUSH2 0xA5 JUMPI DUP1 PUSH4 0xE261F1E5 EQ PUSH2 0xC1 JUMPI DUP1 PUSH4 0xF02DD53F EQ PUSH2 0xF5 JUMPI JUMPDEST PUSH0 DUP1 REVERT JUMPDEST PUSH2 0x73 PUSH1 0x4 DUP1 CALLDATASIZE SUB DUP2 ADD SWAP1 PUSH2 0x6E SWAP2 SWAP1 PUSH2 0x7D1 JUMP JUMPDEST PUSH2 0x129 JUMP JUMPDEST STOP JUMPDEST PUSH2 0x8F PUSH1 0x4 DUP1 CALLDATASIZE SUB DUP2 ADD SWAP1 PUSH2 0x8A SWAP2 SWAP1 PUSH2 0x80F JUMP JUMPDEST PUSH2 0x2E8 JUMP JUMPDEST PUSH1 0x40 MLOAD PUSH2 0x9C SWAP2 SWAP1 PUSH2 0x854 JUMP JUMPDEST PUSH1 0x40 MLOAD DUP1 SWAP2 SUB SWAP1 RETURN JUMPDEST PUSH2 0xBF PUSH1 0x4 DUP1 CALLDATASIZE SUB DUP2 ADD SWAP1 PUSH2 0xBA SWAP2 SWAP1 PUSH2 0x9A9 JUMP JUMPDEST PUSH2 0x311 JUMP JUMPDEST STOP JUMPDEST PUSH2 0xDB PUSH1 0x4 DUP1 CALLDATASIZE SUB DUP2 ADD SWAP1 PUSH2 0xD6 SWAP2 SWAP1 PUSH2 0x80F JUMP JUMPDEST PUSH2 0x4A9 JUMP JUMPDEST PUSH1 0x40 MLOAD PUSH2 0xEC SWAP6 SWAP5 SWAP4 SWAP3 SWAP2 SWAP1 PUSH2 0xA93 JUMP JUMPDEST PUSH1 0x40 MLOAD DUP1 SWAP2 SUB SWAP1 RETURN JUMPDEST PUSH2 0x10F PUSH1 0x4 DUP1 CALLDATASIZE SUB DUP2 ADD SWAP1 PUSH2 0x10A SWAP2 SWAP1 PUSH2 0x80F JUMP JUMPDEST PUSH2 0x58C JUMP JUMPDEST PUSH1 0x40 MLOAD PUSH2 0x120 SWAP6 SWAP5 SWAP4 SWAP3 SWAP2 SWAP1 PUSH2 0xA93 JUMP JUMPDEST PUSH1 0x40 MLOAD DUP1 SWAP2 SUB SWAP1 RETURN JUMPDEST PUSH0 DUP1 PUSH0 DUP5 DUP2 MSTORE PUSH1 0x20 ADD SWAP1 DUP2 MSTORE PUSH1 0x20 ADD PUSH0 KECCAK256 SWAP1 POP DUP1 PUSH1 0x3 ADD PUSH1 0x14 SWAP1 SLOAD SWAP1 PUSH2 0x100 EXP SWAP1 DIV PUSH1 0xFF AND PUSH2 0x18D JUMPI PUSH1 0x40 MLOAD PUSH32 0x8C379A000000000000000000000000000000000000000000000000000000000 DUP2 MSTORE PUSH1 0x4 ADD PUSH2 0x184 SWAP1 PUSH2 0xB35 JUMP JUMPDEST PUSH1 0x40 MLOAD DUP1 SWAP2 SUB SWAP1 REVERT JUMPDEST CALLER PUSH20 0xFFFFFFFFFFFFFFFFFFFFFFFFFFFFFFFFFFFFFFFF AND DUP2 PUSH1 0x3 ADD PUSH0 SWAP1 SLOAD SWAP1 PUSH2 0x100 EXP SWAP1 DIV PUSH20 0xFFFFFFFFFFFFFFFFFFFFFFFFFFFFFFFFFFFFFFFF AND PUSH20 0xFFFFFFFFFFFFFFFFFFFFFFFFFFFFFFFFFFFFFFFF AND EQ PUSH2 0x21E JUMPI PUSH1 0x40 MLOAD PUSH32 0x8C379A000000000000000000000000000000000000000000000000000000000 DUP2 MSTORE PUSH1 0x4 ADD PUSH2 0x215 SWAP1 PUSH2 0xBC3 JUMP JUMPDEST PUSH1 0x40 MLOAD DUP1 SWAP2 SUB SWAP1 REVERT JUMPDEST PUSH0 DUP2 PUSH1 0x3 ADD PUSH0 SWAP1 SLOAD SWAP1 PUSH2 0x100 EXP SWAP1 DIV PUSH20 0xFFFFFFFFFFFFFFFFFFFFFFFFFFFFFFFFFFFFFFFF AND SWAP1 POP DUP3 DUP3 PUSH1 0x3 ADD PUSH0 PUSH2 0x100 EXP DUP2 SLOAD DUP2 PUSH20 0xFFFFFFFFFFFFFFFFFFFFFFFFFFFFFFFFFFFFFFFF MUL NOT AND SWAP1 DUP4 PUSH20 0xFFFFFFFFFFFFFFFFFFFFFFFFFFFFFFFFFFFFFFFF AND MUL OR SWAP1 SSTORE POP DUP3 PUSH20 0xFFFFFFFFFFFFFFFFFFFFFFFFFFFFFFFFFFFFFFFF AND DUP2 PUSH20 0xFFFFFFFFFFFFFFFFFFFFFFFFFFFFFFFFFFFFFFFF AND DUP6 PUSH32 0x16B85F49BF01212961345D3016C9A531894ACCF62EB7680F2045D79185CC0EC0 PUSH1 0x40 MLOAD PUSH1 0x40 MLOAD DUP1 SWAP2 SUB SWAP1 LOG4 POP POP POP POP JUMP JUMPDEST PUSH0 DUP1 PUSH0 DUP4 DUP2 MSTORE PUSH1 0x20 ADD SWAP1 DUP2 MSTORE PUSH1 0x20 ADD PUSH0 KECCAK256 PUSH1 0x3 ADD PUSH1 0x14 SWAP1 SLOAD SWAP1 PUSH2 0x100 EXP SWAP1 DIV PUSH1 0xFF AND SWAP1 POP SWAP2 SWAP1 POP JUMP JUMPDEST PUSH0 DUP1 DUP5 DUP2 MSTORE PUSH1 0x20 ADD SWAP1 DUP2 MSTORE PUSH1 0x20 ADD PUSH0 KECCAK256 PUSH1 0x3 ADD PUSH1 0x14 SWAP1 SLOAD SWAP1 PUSH2 0x100 EXP SWAP1 DIV PUSH1 0xFF AND ISZERO PUSH2 0x372 JUMPI PUSH1 0x40 MLOAD PUSH32 0x8C379A000000000000000000000000000000000000000000000000000000000 DUP2 MSTORE PUSH1 0x4 ADD PUSH2 0x369 SWAP1 PUSH2 0xC2B JUMP JUMPDEST PUSH1 0x40 MLOAD DUP1 SWAP2 SUB SWAP1 REVERT JUMPDEST PUSH1 0x40 MLOAD DUP1 PUSH1 0xA0 ADD PUSH1 0x40 MSTORE DUP1 DUP5 DUP2 MSTORE PUSH1 0x20 ADD DUP4 DUP2 MSTORE PUSH1 0x20 ADD DUP3 DUP2 MSTORE PUSH1 0x20 ADD CALLER PUSH20 0xFFFFFFFFFFFFFFFFFFFFFFFFFFFFFFFFFFFFFFFF AND DUP2 MSTORE PUSH1 0x20 ADD PUSH1 0x1 ISZERO ISZERO DUP2 MSTORE POP PUSH0 DUP1 DUP6 DUP2 MSTORE PUSH1 0x20 ADD SWAP1 DUP2 MSTORE PUSH1 0x20 ADD PUSH0 KECCAK256 PUSH0 DUP3 ADD MLOAD DUP2 PUSH0 ADD SSTORE PUSH1 0x20 DUP3 ADD MLOAD DUP2 PUSH1 0x1 ADD SWAP1 DUP2 PUSH2 0x3DF SWAP2 SWAP1 PUSH2 0xE43 JUMP JUMPDEST POP PUSH1 0x40 DUP3 ADD MLOAD DUP2 PUSH1 0x2 ADD SSTORE PUSH1 0x60 DUP3 ADD MLOAD DUP2 PUSH1 0x3 ADD PUSH0 PUSH2 0x100 EXP DUP2 SLOAD DUP2 PUSH20 0xFFFFFFFFFFFFFFFFFFFFFFFFFFFFFFFFFFFFFFFF MUL NOT AND SWAP1 DUP4 PUSH20 0xFFFFFFFFFFFFFFFFFFFFFFFFFFFFFFFFFFFFFFFF AND MUL OR SWAP1 SSTORE POP PUSH1 0x80 DUP3 ADD MLOAD DUP2 PUSH1 0x3 ADD PUSH1 0x14 PUSH2 0x100 EXP DUP2 SLOAD DUP2 PUSH1 0xFF MUL NOT AND SWAP1 DUP4 ISZERO ISZERO MUL OR SWAP1 SSTORE POP SWAP1 POP POP CALLER PUSH20 0xFFFFFFFFFFFFFFFFFFFFFFFFFFFFFFFFFFFFFFFF AND DUP4 PUSH32 0x53A976A9B9D61DF3BB2E08E33448938AEA67FB03572279EB18ED48CDD6FAD04E DUP5 DUP5 PUSH1 0x40 MLOAD PUSH2 0x49C SWAP3 SWAP2 SWAP1 PUSH2 0xF12 JUMP JUMPDEST PUSH1 0x40 MLOAD DUP1 SWAP2 SUB SWAP1 LOG3 POP POP POP JUMP JUMPDEST PUSH0 PUSH1 0x20 MSTORE DUP1 PUSH0 MSTORE PUSH1 0x40 PUSH0 KECCAK256 PUSH0 SWAP2 POP SWAP1 POP DUP1 PUSH0 ADD SLOAD SWAP1 DUP1 PUSH1 0x1 ADD DUP1 SLOAD PUSH2 0x4CD SWAP1 PUSH2 0xC76 JUMP JUMPDEST DUP1 PUSH1 0x1F ADD PUSH1 0x20 DUP1 SWAP2 DIV MUL PUSH1 0x20 ADD PUSH1 0x40 MLOAD SWAP1 DUP2 ADD PUSH1 0x40 MSTORE DUP1 SWAP3 SWAP2 SWAP1 DUP2 DUP2 MSTORE PUSH1 0x20 ADD DUP3 DUP1 SLOAD PUSH2 0x4F9 SWAP1 PUSH2 0xC76 JUMP JUMPDEST DUP1 ISZERO PUSH2 0x544 JUMPI DUP1 PUSH1 0x1F LT PUSH2 0x51B JUMPI PUSH2 0x100 DUP1 DUP4 SLOAD DIV MUL DUP4 MSTORE SWAP2 PUSH1 0x20 ADD SWAP2 PUSH2 0x544 JUMP JUMPDEST DUP3 ADD SWAP2 SWAP1 PUSH0 MSTORE PUSH1 0x20 PUSH0 KECCAK256 SWAP1 JUMPDEST DUP2 SLOAD DUP2 MSTORE SWAP1 PUSH1 0x1 ADD SWAP1 PUSH1 0x20 ADD DUP1 DUP4 GT PUSH2 0x527 JUMPI DUP3 SWAP1 SUB PUSH1 0x1F AND DUP3 ADD SWAP2 JUMPDEST POP POP POP POP POP SWAP1 DUP1 PUSH1 0x2 ADD SLOAD SWAP1 DUP1 PUSH1 0x3 ADD PUSH0 SWAP1 SLOAD SWAP1 PUSH2 0x100 EXP SWAP1 DIV PUSH20 0xFFFFFFFFFFFFFFFFFFFFFFFFFFFFFFFFFFFFFFFF AND SWAP1 DUP1 PUSH1 0x3 ADD PUSH1 0x14 SWAP1 SLOAD SWAP1 PUSH2 0x100 EXP SWAP1 DIV PUSH1 0xFF AND SWAP1 POP DUP6 JUMP JUMPDEST PUSH0 PUSH1 0x60 PUSH0 DUP1 PUSH0 DUP1 PUSH0 DUP1 DUP9 DUP2 MSTORE PUSH1 0x20 ADD SWAP1 DUP2 MSTORE PUSH1 0x20 ADD PUSH0 KECCAK256 PUSH1 0x40 MLOAD DUP1 PUSH1 0xA0 ADD PUSH1 0x40 MSTORE SWAP1 DUP2 PUSH0 DUP3 ADD SLOAD DUP2 MSTORE PUSH1 0x20 ADD PUSH1 0x1 DUP3 ADD DUP1 SLOAD PUSH2 0x5C7 SWAP1 PUSH2 0xC76 JUMP JUMPDEST DUP1 PUSH1 0x1F ADD PUSH1 0x20 DUP1 SWAP2 DIV MUL PUSH1 0x20 ADD PUSH1 0x40 MLOAD SWAP1 DUP2 ADD PUSH1 0x40 MSTORE DUP1 SWAP3 SWAP2 SWAP1 DUP2 DUP2 MSTORE PUSH1 0x20 ADD DUP3 DUP1 SLOAD PUSH2 0x5F3 SWAP1 PUSH2 0xC76 JUMP JUMPDEST DUP1 ISZERO PUSH2 0x63E JUMPI DUP1 PUSH1 0x1F LT PUSH2 0x615 JUMPI PUSH2 0x100 DUP1 DUP4 SLOAD DIV MUL DUP4 MSTORE SWAP2 PUSH1 0x20 ADD SWAP2 PUSH2 0x63E JUMP JUMPDEST DUP3 ADD SWAP2 SWAP1 PUSH0 MSTORE PUSH1 0x20 PUSH0 KECCAK256 SWAP1 JUMPDEST DUP2 SLOAD DUP2 MSTORE SWAP1 PUSH1 0x1 ADD SWAP1 PUSH1 0x20 ADD DUP1 DUP4 GT PUSH2 0x621 JUMPI DUP3 SWAP1 SUB PUSH1 0x1F AND DUP3 ADD SWAP2 JUMPDEST POP POP POP POP POP DUP2 MSTORE PUSH1 0x20 ADD PUSH1 0x2 DUP3 ADD SLOAD DUP2 MSTORE PUSH1 0x20 ADD PUSH1 0x3 DUP3 ADD PUSH0 SWAP1 SLOAD SWAP1 PUSH2 0x100 EXP SWAP1 DIV PUSH20 0xFFFFFFFFFFFFFFFFFFFFFFFFFFFFFFFFFFFFFFFF AND PUSH20 0xFFFFFFFFFFFFFFFFFFFFFFFFFFFFFFFFFFFFFFFF AND PUSH20 0xFFFFFFFFFFFFFFFFFFFFFFFFFFFFFFFFFFFFFFFF AND DUP2 MSTORE PUSH1 0x20 ADD PUSH1 0x3 DUP3 ADD PUSH1 0x14 SWAP1 SLOAD SWAP1 PUSH2 0x100 EXP SWAP1 DIV PUSH1 0xFF AND ISZERO ISZERO ISZERO ISZERO DUP2 MSTORE POP POP SWAP1 POP DUP1 PUSH1 0x80 ADD MLOAD PUSH2 0x707 JUMPI PUSH1 0x40 MLOAD PUSH32 0x8C379A000000000000000000000000000000000000000000000000000000000 DUP2 MSTORE PUSH1 0x4 ADD PUSH2 0x6FE SWAP1 PUSH2 0xB35 JUMP JUMPDEST PUSH1 0x40 MLOAD DUP1 SWAP2 SUB SWAP1 REVERT JUMPDEST DUP1 PUSH0 ADD MLOAD DUP2 PUSH1 0x20 ADD MLOAD DUP3 PUSH1 0x40 ADD MLOAD DUP4 PUSH1 0x60 ADD MLOAD DUP5 PUSH1 0x80 ADD MLOAD SWAP6 POP SWAP6 POP SWAP6 POP SWAP6 POP SWAP6 POP POP SWAP2 SWAP4 SWAP6 SWAP1 SWAP3 SWAP5 POP JUMP JUMPDEST PUSH0 PUSH1 0x40 MLOAD SWAP1 POP SWAP1 JUMP JUMPDEST PUSH0 DUP1 REVERT JUMPDEST PUSH0 DUP1 REVERT JUMPDEST PUSH0 DUP2 SWAP1 POP SWAP2 SWAP1 POP JUMP JUMPDEST PUSH2 0x756 DUP2 PUSH2 0x744 JUMP JUMPDEST DUP2 EQ PUSH2 0x760 JUMPI PUSH0 DUP1 REVERT JUMPDEST POP JUMP JUMPDEST PUSH0 DUP2 CALLDATALOAD SWAP1 POP PUSH2 0x771 DUP2 PUSH2 0x74D JUMP JUMPDEST SWAP3 SWAP2 POP POP JUMP JUMPDEST PUSH0 PUSH20 0xFFFFFFFFFFFFFFFFFFFFFFFFFFFFFFFFFFFFFFFF DUP3 AND SWAP1 POP SWAP2 SWAP1 POP JUMP JUMPDEST PUSH0 PUSH2 0x7A0 DUP3 PUSH2 0x777 JUMP JUMPDEST SWAP1 POP SWAP2 SWAP1 POP JUMP JUMPDEST PUSH2 0x7B0 DUP2 PUSH2 0x796 JUMP JUMPDEST DUP2 EQ PUSH2 0x7BA JUMPI PUSH0 DUP1 REVERT JUMPDEST POP JUMP JUMPDEST PUSH0 DUP2 CALLDATALOAD SWAP1 POP PUSH2 0x7CB DUP2 PUSH2 0x7A7 JUMP JUMPDEST SWAP3 SWAP2 POP POP JUMP JUMPDEST PUSH0 DUP1 PUSH1 0x40 DUP4 DUP6 SUB SLT ISZERO PUSH2 0x7E7 JUMPI PUSH2 0x7E6 PUSH2 0x73C JUMP JUMPDEST JUMPDEST PUSH0 PUSH2 0x7F4 DUP6 DUP3 DUP7 ADD PUSH2 0x763 JUMP JUMPDEST SWAP3 POP POP PUSH1 0x20 PUSH2 0x805 DUP6 DUP3 DUP7 ADD PUSH2 0x7BD JUMP JUMPDEST SWAP2 POP POP SWAP3 POP SWAP3 SWAP1 POP JUMP JUMPDEST PUSH0 PUSH1 0x20 DUP3 DUP5 SUB SLT ISZERO PUSH2 0x824 JUMPI PUSH2 0x823 PUSH2 0x73C JUMP JUMPDEST JUMPDEST PUSH0 PUSH2 0x831 DUP5 DUP3 DUP6 ADD PUSH2 0x763 JUMP JUMPDEST SWAP2 POP POP SWAP3 SWAP2 POP POP JUMP JUMPDEST PUSH0 DUP2 ISZERO ISZERO SWAP1 POP SWAP2 SWAP1 POP JUMP JUMPDEST PUSH2 0x84E DUP2 PUSH2 0x83A JUMP JUMPDEST DUP3 MSTORE POP POP JUMP JUMPDEST PUSH0 PUSH1 0x20 DUP3 ADD SWAP1 POP PUSH2 0x867 PUSH0 DUP4 ADD DUP5 PUSH2 0x845 JUMP JUMPDEST SWAP3 SWAP2 POP POP JUMP JUMPDEST PUSH0 DUP1 REVERT JUMPDEST PUSH0 DUP1 REVERT JUMPDEST PUSH0 PUSH1 0x1F NOT PUSH1 0x1F DUP4 ADD AND SWAP1 POP SWAP2 SWAP1 POP JUMP JUMPDEST PUSH32 0x4E487B7100000000000000000000000000000000000000000000000000000000 PUSH0 MSTORE PUSH1 0x41 PUSH1 0x4 MSTORE PUSH1 0x24 PUSH0 REVERT JUMPDEST PUSH2 0x8BB DUP3 PUSH2 0x875 JUMP JUMPDEST DUP2 ADD DUP2 DUP2 LT PUSH8 0xFFFFFFFFFFFFFFFF DUP3 GT OR ISZERO PUSH2 0x8DA JUMPI PUSH2 0x8D9 PUSH2 0x885 JUMP JUMPDEST JUMPDEST DUP1 PUSH1 0x40 MSTORE POP POP POP JUMP JUMPDEST PUSH0 PUSH2 0x8EC PUSH2 0x733 JUMP JUMPDEST SWAP1 POP PUSH2 0x8F8 DUP3 DUP3 PUSH2 0x8B2 JUMP JUMPDEST SWAP2 SWAP1 POP JUMP JUMPDEST PUSH0 PUSH8 0xFFFFFFFFFFFFFFFF DUP3 GT ISZERO PUSH2 0x917 JUMPI PUSH2 0x916 PUSH2 0x885 JUMP JUMPDEST JUMPDEST PUSH2 0x920 DUP3 PUSH2 0x875 JUMP JUMPDEST SWAP1 POP PUSH1 0x20 DUP2 ADD SWAP1 POP SWAP2 SWAP1 POP JUMP JUMPDEST DUP3 DUP2 DUP4 CALLDATACOPY PUSH0 DUP4 DUP4 ADD MSTORE POP POP POP JUMP JUMPDEST PUSH0 PUSH2 0x94D PUSH2 0x948 DUP5 PUSH2 0x8FD JUMP JUMPDEST PUSH2 0x8E3 JUMP JUMPDEST SWAP1 POP DUP3 DUP2 MSTORE PUSH1 0x20 DUP2 ADD DUP5 DUP5 DUP5 ADD GT ISZERO PUSH2 0x969 JUMPI PUSH2 0x968 PUSH2 0x871 JUMP JUMPDEST JUMPDEST PUSH2 0x974 DUP5 DUP3 DUP6 PUSH2 0x92D JUMP JUMPDEST POP SWAP4 SWAP3 POP POP POP JUMP JUMPDEST PUSH0 DUP3 PUSH1 0x1F DUP4 ADD SLT PUSH2 0x990 JUMPI PUSH2 0x98F PUSH2 0x86D JUMP JUMPDEST JUMPDEST DUP2 CALLDATALOAD PUSH2 0x9A0 DUP5 DUP3 PUSH1 0x20 DUP7 ADD PUSH2 0x93B JUMP JUMPDEST SWAP2 POP POP SWAP3 SWAP2 POP POP JUMP JUMPDEST PUSH0 DUP1 PUSH0 PUSH1 0x60 DUP5 DUP7 SUB SLT ISZERO PUSH2 0x9C0 JUMPI PUSH2 0x9BF PUSH2 0x73C JUMP JUMPDEST JUMPDEST PUSH0 PUSH2 0x9CD DUP7 DUP3 DUP8 ADD PUSH2 0x763 JUMP JUMPDEST SWAP4 POP POP PUSH1 0x20 DUP5 ADD CALLDATALOAD PUSH8 0xFFFFFFFFFFFFFFFF DUP2 GT ISZERO PUSH2 0x9EE JUMPI PUSH2 0x9ED PUSH2 0x740 JUMP JUMPDEST JUMPDEST PUSH2 0x9FA DUP7 DUP3 DUP8 ADD PUSH2 0x97C JUMP JUMPDEST SWAP3 POP POP PUSH1 0x40 PUSH2 0xA0B DUP7 DUP3 DUP8 ADD PUSH2 0x763 JUMP JUMPDEST SWAP2 POP POP SWAP3 POP SWAP3 POP SWAP3 JUMP JUMPDEST PUSH2 0xA1E DUP2 PUSH2 0x744 JUMP JUMPDEST DUP3 MSTORE POP POP JUMP JUMPDEST PUSH0 DUP2 MLOAD SWAP1 POP SWAP2 SWAP1 POP JUMP JUMPDEST PUSH0 DUP3 DUP3 MSTORE PUSH1 0x20 DUP3 ADD SWAP1 POP SWAP3 SWAP2 POP POP JUMP JUMPDEST DUP3 DUP2 DUP4 MCOPY PUSH0 DUP4 DUP4 ADD MSTORE POP POP POP JUMP JUMPDEST PUSH0 PUSH2 0xA56 DUP3 PUSH2 0xA24 JUMP JUMPDEST PUSH2 0xA60 DUP2 DUP6 PUSH2 0xA2E JUMP JUMPDEST SWAP4 POP PUSH2 0xA70 DUP2 DUP6 PUSH1 0x20 DUP7 ADD PUSH2 0xA3E JUMP JUMPDEST PUSH2 0xA79 DUP2 PUSH2 0x875 JUMP JUMPDEST DUP5 ADD SWAP2 POP POP SWAP3 SWAP2 POP POP JUMP JUMPDEST PUSH2 0xA8D DUP2 PUSH2 0x796 JUMP JUMPDEST DUP3 MSTORE POP POP JUMP JUMPDEST PUSH0 PUSH1 0xA0 DUP3 ADD SWAP1 POP PUSH2 0xAA6 PUSH0 DUP4 ADD DUP9 PUSH2 0xA15 JUMP JUMPDEST DUP2 DUP2 SUB PUSH1 0x20 DUP4 ADD MSTORE PUSH2 0xAB8 DUP2 DUP8 PUSH2 0xA4C JUMP JUMPDEST SWAP1 POP PUSH2 0xAC7 PUSH1 0x40 DUP4 ADD DUP7 PUSH2 0xA15 JUMP JUMPDEST PUSH2 0xAD4 PUSH1 0x60 DUP4 ADD DUP6 PUSH2 0xA84 JUMP JUMPDEST PUSH2 0xAE1 PUSH1 0x80 DUP4 ADD DUP5 PUSH2 0x845 JUMP JUMPDEST SWAP7 SWAP6 POP POP POP POP POP POP JUMP JUMPDEST PUSH32 0x4C616E64206E6F74207265676973746572656400000000000000000000000000 PUSH0 DUP3 ADD MSTORE POP JUMP JUMPDEST PUSH0 PUSH2 0xB1F PUSH1 0x13 DUP4 PUSH2 0xA2E JUMP JUMPDEST SWAP2 POP PUSH2 0xB2A DUP3 PUSH2 0xAEB JUMP JUMPDEST PUSH1 0x20 DUP3 ADD SWAP1 POP SWAP2 SWAP1 POP JUMP JUMPDEST PUSH0 PUSH1 0x20 DUP3 ADD SWAP1 POP DUP2 DUP2 SUB PUSH0 DUP4 ADD MSTORE PUSH2 0xB4C DUP2 PUSH2 0xB13 JUMP JUMPDEST SWAP1 POP SWAP2 SWAP1 POP JUMP JUMPDEST PUSH32 0x4F6E6C7920746865206F776E65722063616E207472616E73666572206F776E65 PUSH0 DUP3 ADD MSTORE PUSH32 0x7273686970000000000000000000000000000000000000000000000000000000 PUSH1 0x20 DUP3 ADD MSTORE POP JUMP JUMPDEST PUSH0 PUSH2 0xBAD PUSH1 0x25 DUP4 PUSH2 0xA2E JUMP JUMPDEST SWAP2 POP PUSH2 0xBB8 DUP3 PUSH2 0xB53 JUMP JUMPDEST PUSH1 0x40 DUP3 ADD SWAP1 POP SWAP2 SWAP1 POP JUMP JUMPDEST PUSH0 PUSH1 0x20 DUP3 ADD SWAP1 POP DUP2 DUP2 SUB PUSH0 DUP4 ADD MSTORE PUSH2 0xBDA DUP2 PUSH2 0xBA1 JUMP JUMPDEST SWAP1 POP SWAP2 SWAP1 POP JUMP JUMPDEST PUSH32 0x4C616E6420616C72656164792072656769737465726564000000000000000000 PUSH0 DUP3 ADD MSTORE POP JUMP JUMPDEST PUSH0 PUSH2 0xC15 PUSH1 0x17 DUP4 PUSH2 0xA2E JUMP JUMPDEST SWAP2 POP PUSH2 0xC20 DUP3 PUSH2 0xBE1 JUMP JUMPDEST PUSH1 0x20 DUP3 ADD SWAP1 POP SWAP2 SWAP1 POP JUMP JUMPDEST PUSH0 PUSH1 0x20 DUP3 ADD SWAP1 POP DUP2 DUP2 SUB PUSH0 DUP4 ADD MSTORE PUSH2 0xC42 DUP2 PUSH2 0xC09 JUMP JUMPDEST SWAP1 POP SWAP2 SWAP1 POP JUMP JUMPDEST PUSH32 0x4E487B7100000000000000000000000000000000000000000000000000000000 PUSH0 MSTORE PUSH1 0x22 PUSH1 0x4 MSTORE PUSH1 0x24 PUSH0 REVERT JUMPDEST PUSH0 PUSH1 0x2 DUP3 DIV SWAP1 POP PUSH1 0x1 DUP3 AND DUP1 PUSH2 0xC8D JUMPI PUSH1 0x7F DUP3 AND SWAP2 POP JUMPDEST PUSH1 0x20 DUP3 LT DUP2 SUB PUSH2 0xCA0 JUMPI PUSH2 0xC9F PUSH2 0xC49 JUMP JUMPDEST JUMPDEST POP SWAP2 SWAP1 POP JUMP JUMPDEST PUSH0 DUP2 SWAP1 POP DUP2 PUSH0 MSTORE PUSH1 0x20 PUSH0 KECCAK256 SWAP1 POP SWAP2 SWAP1 POP JUMP JUMPDEST PUSH0 PUSH1 0x20 PUSH1 0x1F DUP4 ADD DIV SWAP1 POP SWAP2 SWAP1 POP JUMP JUMPDEST PUSH0 DUP3 DUP3 SHL SWAP1 POP SWAP3 SWAP2 POP POP JUMP JUMPDEST PUSH0 PUSH1 0x8 DUP4 MUL PUSH2 0xD02 PUSH32 0xFFFFFFFFFFFFFFFFFFFFFFFFFFFFFFFFFFFFFFFFFFFFFFFFFFFFFFFFFFFFFFFF DUP3 PUSH2 0xCC7 JUMP JUMPDEST PUSH2 0xD0C DUP7 DUP4 PUSH2 0xCC7 JUMP JUMPDEST SWAP6 POP DUP1 NOT DUP5 AND SWAP4 POP DUP1 DUP7 AND DUP5 OR SWAP3 POP POP POP SWAP4 SWAP3 POP POP POP JUMP JUMPDEST PUSH0 DUP2 SWAP1 POP SWAP2 SWAP1 POP JUMP JUMPDEST PUSH0 PUSH2 0xD47 PUSH2 0xD42 PUSH2 0xD3D DUP5 PUSH2 0x744 JUMP JUMPDEST PUSH2 0xD24 JUMP JUMPDEST PUSH2 0x744 JUMP JUMPDEST SWAP1 POP SWAP2 SWAP1 POP JUMP JUMPDEST PUSH0 DUP2 SWAP1 POP SWAP2 SWAP1 POP JUMP JUMPDEST PUSH2 0xD60 DUP4 PUSH2 0xD2D JUMP JUMPDEST PUSH2 0xD74 PUSH2 0xD6C DUP3 PUSH2 0xD4E JUMP JUMPDEST DUP5 DUP5 SLOAD PUSH2 0xCD3 JUMP JUMPDEST DUP3 SSTORE POP POP POP POP JUMP JUMPDEST PUSH0 SWAP1 JUMP JUMPDEST PUSH2 0xD88 PUSH2 0xD7C JUMP JUMPDEST PUSH2 0xD93 DUP2 DUP5 DUP5 PUSH2 0xD57 JUMP JUMPDEST POP POP POP JUMP JUMPDEST JUMPDEST DUP2 DUP2 LT ISZERO PUSH2 0xDB6 JUMPI PUSH2 0xDAB PUSH0 DUP3 PUSH2 0xD80 JUMP JUMPDEST PUSH1 0x1 DUP2 ADD SWAP1 POP PUSH2 0xD99 JUMP JUMPDEST POP POP JUMP JUMPDEST PUSH1 0x1F DUP3 GT ISZERO PUSH2 0xDFB JUMPI PUSH2 0xDCC DUP2 PUSH2 0xCA6 JUMP JUMPDEST PUSH2 0xDD5 DUP5 PUSH2 0xCB8 JUMP JUMPDEST DUP2 ADD PUSH1 0x20 DUP6 LT ISZERO PUSH2 0xDE4 JUMPI DUP2 SWAP1 POP JUMPDEST PUSH2 0xDF8 PUSH2 0xDF0 DUP6 PUSH2 0xCB8 JUMP JUMPDEST DUP4 ADD DUP3 PUSH2 0xD98 JUMP JUMPDEST POP POP JUMPDEST POP POP POP JUMP JUMPDEST PUSH0 DUP3 DUP3 SHR SWAP1 POP SWAP3 SWAP2 POP POP JUMP JUMPDEST PUSH0 PUSH2 0xE1B PUSH0 NOT DUP5 PUSH1 0x8 MUL PUSH2 0xE00 JUMP JUMPDEST NOT DUP1 DUP4 AND SWAP2 POP POP SWAP3 SWAP2 POP POP JUMP JUMPDEST PUSH0 PUSH2 0xE33 DUP4 DUP4 PUSH2 0xE0C JUMP JUMPDEST SWAP2 POP DUP3 PUSH1 0x2 MUL DUP3 OR SWAP1 POP SWAP3 SWAP2 POP POP JUMP JUMPDEST PUSH2 0xE4C DUP3 PUSH2 0xA24 JUMP JUMPDEST PUSH8 0xFFFFFFFFFFFFFFFF DUP2 GT ISZERO PUSH2 0xE65 JUMPI PUSH2 0xE64 PUSH2 0x885 JUMP JUMPDEST JUMPDEST PUSH2 0xE6F DUP3 SLOAD PUSH2 0xC76 JUMP JUMPDEST PUSH2 0xE7A DUP3 DUP3 DUP6 PUSH2 0xDBA JUMP JUMPDEST PUSH0 PUSH1 0x20 SWAP1 POP PUSH1 0x1F DUP4 GT PUSH1 0x1 DUP2 EQ PUSH2 0xEAB JUMPI PUSH0 DUP5 ISZERO PUSH2 0xE99 JUMPI DUP3 DUP8 ADD MLOAD SWAP1 POP JUMPDEST PUSH2 0xEA3 DUP6 DUP3 PUSH2 0xE28 JUMP JUMPDEST DUP7 SSTORE POP PUSH2 0xF0A JUMP JUMPDEST PUSH1 0x1F NOT DUP5 AND PUSH2 0xEB9 DUP7 PUSH2 0xCA6 JUMP JUMPDEST PUSH0 JUMPDEST DUP3 DUP2 LT ISZERO PUSH2 0xEE0 JUMPI DUP5 DUP10 ADD MLOAD DUP3 SSTORE PUSH1 0x1 DUP3 ADD SWAP2 POP PUSH1 0x20 DUP6 ADD SWAP5 POP PUSH1 0x20 DUP2 ADD SWAP1 POP PUSH2 0xEBB JUMP JUMPDEST DUP7 DUP4 LT ISZERO PUSH2 0xEFD JUMPI DUP5 DUP10 ADD MLOAD PUSH2 0xEF9 PUSH1 0x1F DUP10 AND DUP3 PUSH2 0xE0C JUMP JUMPDEST DUP4 SSTORE POP JUMPDEST PUSH1 0x1 PUSH1 0x2 DUP9 MUL ADD DUP9 SSTORE POP POP POP JUMPDEST POP POP POP POP POP POP JUMP JUMPDEST PUSH0 PUSH1 0x40 DUP3 ADD SWAP1 POP DUP2 DUP2 SUB PUSH0 DUP4 ADD MSTORE PUSH2 0xF2A DUP2 DUP6 PUSH2 0xA4C JUMP JUMPDEST SWAP1 POP PUSH2 0xF39 PUSH1 0x20 DUP4 ADD DUP5 PUSH2 0xA15 JUMP JUMPDEST SWAP4 SWAP3 POP POP POP JUMP INVALID LOG2 PUSH5 0x6970667358 0x22 SLT KECCAK256 0x2A 0x4E PUSH26 0x181CE8D931E9F85A1E6E65F380B056BFD9E49BF221D169A9F9ED LOG2 0x2D DIV PUSH5 0x736F6C6343 STOP ADDMOD BYTE STOP CALLER "
		},
		"gasEstimates": {
			"creation": {
				"codeDepositCost": "791600",
				"executionCost": "823",
				"totalCost": "792423"
			},
			"external": {
				"getLand(uint256)": "infinite",
				"isLandRegistered(uint256)": "2867",
				"lands(uint256)": "infinite",
				"registerLand(uint256,string,uint256)": "infinite",
				"transferOwnership(uint256,address)": "33418"
			}
		},
		"methodIdentifiers": {
			"getLand(uint256)": "f02dd53f",
			"isLandRegistered(uint256)": "2e8782bc",
			"lands(uint256)": "e261f1e5",
			"registerLand(uint256,string,uint256)": "98f1c340",
			"transferOwnership(uint256,address)": "29507f73"
		}
	},
	"abi": [
		{
			"anonymous": false,
			"inputs": [
				{
					"indexed": true,
					"internalType": "uint256",
					"name": "landId",
					"type": "uint256"
				},
				{
					"indexed": false,
					"internalType": "string",
					"name": "location",
					"type": "string"
				},
				{
					"indexed": false,
					"internalType": "uint256",
					"name": "area",
					"type": "uint256"
				},
				{
					"indexed": true,
					"internalType": "address",
					"name": "owner",
					"type": "address"
				}
			],
			"name": "LandRegistered",
			"type": "event"
		},
		{
			"anonymous": false,
			"inputs": [
				{
					"indexed": true,
					"internalType": "uint256",
					"name": "landId",
					"type": "uint256"
				},
				{
					"indexed": true,
					"internalType": "address",
					"name": "oldOwner",
					"type": "address"
				},
				{
					"indexed": true,
					"internalType": "address",
					"name": "newOwner",
					"type": "address"
				}
			],
			"name": "OwnershipTransferred",
			"type": "event"
		},
		{
			"inputs": [
				{
					"internalType": "uint256",
					"name": "_id",
					"type": "uint256"
				}
			],
			"name": "getLand",
			"outputs": [
				{
					"internalType": "uint256",
					"name": "",
					"type": "uint256"
				},
				{
					"internalType": "string",
					"name": "",
					"type": "string"
				},
				{
					"internalType": "uint256",
					"name": "",
					"type": "uint256"
				},
				{
					"internalType": "address",
					"name": "",
					"type": "address"
				},
				{
					"internalType": "bool",
					"name": "",
					"type": "bool"
				}
			],
			"stateMutability": "view",
			"type": "function"
		},
		{
			"inputs": [
				{
					"internalType": "uint256",
					"name": "_id",
					"type": "uint256"
				}
			],
			"name": "isLandRegistered",
			"outputs": [
				{
					"internalType": "bool",
					"name": "",
					"type": "bool"
				}
			],
			"stateMutability": "view",
			"type": "function"
		},
		{
			"inputs": [
				{
					"internalType": "uint256",
					"name": "",
					"type": "uint256"
				}
			],
			"name": "lands",
			"outputs": [
				{
					"internalType": "uint256",
					"name": "id",
					"type": "uint256"
				},
				{
					"internalType": "string",
					"name": "location",
					"type": "string"
				},
				{
					"internalType": "uint256",
					"name": "area",
					"type": "uint256"
				},
				{
					"internalType": "address",
					"name": "owner",
					"type": "address"
				},
				{
					"internalType": "bool",
					"name": "registered",
					"type": "bool"
				}
			],
			"stateMutability": "view",
			"type": "function"
		},
		{
			"inputs": [
				{
					"internalType": "uint256",
					"name": "_id",
					"type": "uint256"
				},
				{
					"internalType": "string",
					"name": "_location",
					"type": "string"
				},
				{
					"internalType": "uint256",
					"name": "_area",
					"type": "uint256"
				}
			],
			"name": "registerLand",
			"outputs": [],
			"stateMutability": "nonpayable",
			"type": "function"
		},
		{
			"inputs": [
				{
					"internalType": "uint256",
					"name": "_id",
					"type": "uint256"
				},
				{
					"internalType": "address",
					"name": "_newOwner",
					"type": "address"
				}
			],
			"name": "transferOwnership",
			"outputs": [],
			"stateMutability": "nonpayable",
			"type": "function"
		}
	]
}